{
  "_format": "hh-sol-artifact-1",
  "contractName": "ShipmentLedger",
  "sourceName": "contracts/ShipmentLedger.sol",
  "abi": [
    {
      "inputs": [
        {
          "internalType": "address",
          "name": "roleManagerAddress",
          "type": "address"
        }
      ],
      "stateMutability": "nonpayable",
      "type": "constructor"
    },
    {
      "anonymous": false,
      "inputs": [
        {
          "indexed": true,
          "internalType": "bytes32",
          "name": "shipmentId",
          "type": "bytes32"
        },
        {
          "indexed": true,
          "internalType": "address",
          "name": "sender",
          "type": "address"
        }
      ],
      "name": "ShipmentApproved",
      "type": "event"
    },
    {
      "anonymous": false,
      "inputs": [
        {
          "indexed": true,
          "internalType": "bytes32",
          "name": "shipmentId",
          "type": "bytes32"
        },
        {
          "indexed": true,
          "internalType": "address",
          "name": "receiver",
          "type": "address"
        }
      ],
      "name": "ShipmentDelivered",
      "type": "event"
    },
    {
      "anonymous": false,
      "inputs": [
        {
          "indexed": true,
          "internalType": "bytes32",
          "name": "shipmentId",
          "type": "bytes32"
        },
        {
          "indexed": true,
          "internalType": "address",
          "name": "sender",
          "type": "address"
        }
      ],
      "name": "ShipmentDispatched",
      "type": "event"
    },
    {
      "anonymous": false,
      "inputs": [
        {
          "indexed": true,
          "internalType": "bytes32",
          "name": "shipmentId",
          "type": "bytes32"
        },
        {
          "indexed": true,
          "internalType": "bytes32",
          "name": "batchId",
          "type": "bytes32"
        },
        {
          "indexed": true,
          "internalType": "address",
          "name": "receiver",
          "type": "address"
        },
        {
          "indexed": false,
          "internalType": "address",
          "name": "sender",
          "type": "address"
        },
        {
          "indexed": false,
          "internalType": "uint32",
          "name": "unitStart",
          "type": "uint32"
        },
        {
          "indexed": false,
          "internalType": "uint32",
          "name": "unitEnd",
          "type": "uint32"
        },
        {
          "indexed": false,
          "internalType": "uint256",
          "name": "quantity",
          "type": "uint256"
        }
      ],
      "name": "ShipmentRequested",
      "type": "event"
    },
    {
      "anonymous": false,
      "inputs": [
        {
          "indexed": true,
          "internalType": "bytes32",
          "name": "unitId",
          "type": "bytes32"
        },
        {
          "indexed": true,
          "internalType": "enum ShipmentLedger.EventType",
          "name": "eventType",
          "type": "uint8"
        },
        {
          "indexed": true,
          "internalType": "address",
          "name": "actor",
          "type": "address"
        },
        {
          "indexed": false,
          "internalType": "bytes32",
          "name": "locationHash",
          "type": "bytes32"
        }
      ],
      "name": "SupplyEventRecorded",
      "type": "event"
    },
    {
      "inputs": [
        {
          "internalType": "bytes32",
          "name": "shipmentId",
          "type": "bytes32"
        }
      ],
      "name": "approveShipment",
      "outputs": [],
      "stateMutability": "nonpayable",
      "type": "function"
    },
    {
      "inputs": [
        {
          "internalType": "bytes32",
          "name": "shipmentId",
          "type": "bytes32"
        }
      ],
      "name": "confirmDelivery",
      "outputs": [],
      "stateMutability": "nonpayable",
      "type": "function"
    },
    {
      "inputs": [
        {
          "internalType": "bytes32",
          "name": "shipmentId",
          "type": "bytes32"
        }
      ],
      "name": "dispatchShipment",
      "outputs": [],
      "stateMutability": "nonpayable",
      "type": "function"
    },
    {
      "inputs": [
        {
          "internalType": "bytes32",
          "name": "unitId",
          "type": "bytes32"
        }
      ],
      "name": "getUnitEvents",
      "outputs": [
        {
          "components": [
            {
              "internalType": "bytes32",
              "name": "unitId",
              "type": "bytes32"
            },
            {
              "internalType": "enum ShipmentLedger.EventType",
              "name": "eventType",
              "type": "uint8"
            },
            {
              "internalType": "address",
              "name": "actor",
              "type": "address"
            },
            {
              "internalType": "uint64",
              "name": "timestamp",
              "type": "uint64"
            },
            {
              "internalType": "bytes32",
              "name": "locationHash",
              "type": "bytes32"
            },
            {
              "internalType": "bool",
              "name": "senderConfirmed",
              "type": "bool"
            },
            {
              "internalType": "bool",
              "name": "receiverConfirmed",
              "type": "bool"
            }
          ],
          "internalType": "struct ShipmentLedger.SupplyEvent[]",
          "name": "",
          "type": "tuple[]"
        }
      ],
      "stateMutability": "view",
      "type": "function"
    },
    {
      "inputs": [
        {
          "internalType": "bytes32",
          "name": "unitId",
          "type": "bytes32"
        },
        {
          "internalType": "enum ShipmentLedger.EventType",
          "name": "eventType",
          "type": "uint8"
        },
        {
          "internalType": "bytes32",
          "name": "locationHash",
          "type": "bytes32"
        },
        {
          "internalType": "bool",
          "name": "senderConfirmed",
          "type": "bool"
        },
        {
          "internalType": "bool",
          "name": "receiverConfirmed",
          "type": "bool"
        }
      ],
      "name": "recordSupplyEvent",
      "outputs": [],
      "stateMutability": "nonpayable",
      "type": "function"
    },
    {
      "inputs": [
        {
          "internalType": "bytes32",
          "name": "shipmentId",
          "type": "bytes32"
        },
        {
          "internalType": "bytes32",
          "name": "batchId",
          "type": "bytes32"
        },
        {
          "internalType": "uint32",
          "name": "unitStart",
          "type": "uint32"
        },
        {
          "internalType": "uint32",
          "name": "unitEnd",
          "type": "uint32"
        },
        {
          "internalType": "address",
          "name": "sender",
          "type": "address"
        },
        {
          "internalType": "uint256",
          "name": "quantity",
          "type": "uint256"
        }
      ],
      "name": "requestShipment",
      "outputs": [],
      "stateMutability": "nonpayable",
      "type": "function"
    },
    {
      "inputs": [],
      "name": "roleManager",
      "outputs": [
        {
          "internalType": "contract RoleManager",
          "name": "",
          "type": "address"
        }
      ],
      "stateMutability": "view",
      "type": "function"
    },
    {
      "inputs": [
        {
          "internalType": "bytes32",
          "name": "",
          "type": "bytes32"
        }
      ],
      "name": "shipments",
      "outputs": [
        {
          "internalType": "bytes32",
          "name": "shipmentId",
          "type": "bytes32"
        },
        {
          "internalType": "bytes32",
          "name": "batchId",
          "type": "bytes32"
        },
        {
          "internalType": "uint32",
          "name": "unitStart",
          "type": "uint32"
        },
        {
          "internalType": "uint32",
          "name": "unitEnd",
          "type": "uint32"
        },
        {
          "internalType": "address",
          "name": "sender",
          "type": "address"
        },
        {
          "internalType": "address",
          "name": "receiver",
          "type": "address"
        },
        {
          "internalType": "uint256",
          "name": "quantity",
          "type": "uint256"
        },
        {
          "internalType": "enum ShipmentLedger.ShipmentStatus",
          "name": "status",
          "type": "uint8"
        },
        {
          "internalType": "bool",
          "name": "exists",
          "type": "bool"
        }
      ],
      "stateMutability": "view",
      "type": "function"
    }
  ],
  "bytecode": "0x60a06040523480156200001157600080fd5b50604051620020df380380620020df83398181016040528101906200003791906200014e565b600073ffffffffffffffffffffffffffffffffffffffff168173ffffffffffffffffffffffffffffffffffffffff1603620000a9576040517f08c379a0000000000000000000000000000000000000000000000000000000008152600401620000a090620001e1565b60405180910390fd5b8073ffffffffffffffffffffffffffffffffffffffff1660808173ffffffffffffffffffffffffffffffffffffffff16815250505062000203565b600080fd5b600073ffffffffffffffffffffffffffffffffffffffff82169050919050565b60006200011682620000e9565b9050919050565b620001288162000109565b81146200013457600080fd5b50565b60008151905062000148816200011d565b92915050565b600060208284031215620001675762000166620000e4565b5b6000620001778482850162000137565b91505092915050565b600082825260208201905092915050565b7f496e76616c696420726f6c65206d616e61676572000000000000000000000000600082015250565b6000620001c960148362000180565b9150620001d68262000191565b602082019050919050565b60006020820190508181036000830152620001fc81620001ba565b9050919050565b608051611eb962000226600039600081816101a0015261038b0152611eb96000f3fe608060405234801561001057600080fd5b50600436106100875760003560e01c8063591a40de1161005b578063591a40de1461011257806374950ffd1461012e57806379302d071461014a578063d87b40411461016657610087565b8062435da51461008c57806320256396146100aa578063293ca81a146100c6578063416e31d7146100e2575b600080fd5b61009461019e565b6040516100a19190611218565b60405180910390f35b6100c460048036038101906100bf919061131e565b6101c2565b005b6100e060048036038101906100db91906113ab565b610708565b005b6100fc60048036038101906100f791906113ab565b6108ee565b60405161010991906115e8565b60405180910390f35b61012c600480360381019061012791906113ab565b610a6d565b005b610148600480360381019061014391906113ab565b610c53565b005b610164600480360381019061015f919061165b565b610e39565b005b610180600480360381019061017b91906113ab565b6110d1565b60405161019599989796959493929190611769565b60405180910390f35b7f000000000000000000000000000000000000000000000000000000000000000081565b6000801b8603610207576040517f08c379a00000000000000000000000000000000000000000000000000000000081526004016101fe90611853565b60405180910390fd5b60008087815260200190815260200160002060050160019054906101000a900460ff161561026a576040517f08c379a0000000000000000000000000000000000000000000000000000000008152600401610261906118bf565b60405180910390fd5b600073ffffffffffffffffffffffffffffffffffffffff168273ffffffffffffffffffffffffffffffffffffffff16036102d9576040517f08c379a00000000000000000000000000000000000000000000000000000000081526004016102d09061192b565b60405180910390fd5b8363ffffffff168363ffffffff161015610328576040517f08c379a000000000000000000000000000000000000000000000000000000000815260040161031f90611997565b60405180910390fd5b6001848461033691906119e6565b6103409190611a1e565b63ffffffff168114610387576040517f08c379a000000000000000000000000000000000000000000000000000000000815260040161037e90611aa2565b60405180910390fd5b60007f000000000000000000000000000000000000000000000000000000000000000073ffffffffffffffffffffffffffffffffffffffff166344276733336040518263ffffffff1660e01b81526004016103e29190611ac2565b602060405180830381865afa1580156103ff573d6000803e3d6000fd5b505050506040513d601f19601f820116820180604052508101906104239190611b02565b90506002600481111561043957610438611413565b5b81600481111561044c5761044b611413565b5b148061047c57506003600481111561046757610466611413565b5b81600481111561047a57610479611413565b5b145b6104bb576040517f08c379a00000000000000000000000000000000000000000000000000000000081526004016104b290611b7b565b60405180910390fd5b6040518061012001604052808881526020018781526020018663ffffffff1681526020018563ffffffff1681526020018473ffffffffffffffffffffffffffffffffffffffff1681526020013373ffffffffffffffffffffffffffffffffffffffff1681526020018381526020016000600381111561053d5761053c611413565b5b815260200160011515815250600080898152602001908152602001600020600082015181600001556020820151816001015560408201518160020160006101000a81548163ffffffff021916908363ffffffff16021790555060608201518160020160046101000a81548163ffffffff021916908363ffffffff16021790555060808201518160020160086101000a81548173ffffffffffffffffffffffffffffffffffffffff021916908373ffffffffffffffffffffffffffffffffffffffff16021790555060a08201518160030160006101000a81548173ffffffffffffffffffffffffffffffffffffffff021916908373ffffffffffffffffffffffffffffffffffffffff16021790555060c0820151816004015560e08201518160050160006101000a81548160ff021916908360038111156106805761067f611413565b5b02179055506101008201518160050160016101000a81548160ff0219169083151502179055509050503373ffffffffffffffffffffffffffffffffffffffff1686887fdf0d4f37889e4c20abb1242df57f9163c5e5388c6b3f0193608761b7897569ca868989886040516106f79493929190611b9b565b60405180910390a450505050505050565b600080600083815260200190815260200160002090508060050160019054906101000a900460ff1661076f576040517f08c379a000000000000000000000000000000000000000000000000000000000815260040161076690611c2c565b60405180910390fd5b3373ffffffffffffffffffffffffffffffffffffffff168160020160089054906101000a900473ffffffffffffffffffffffffffffffffffffffff1673ffffffffffffffffffffffffffffffffffffffff1614610801576040517f08c379a00000000000000000000000000000000000000000000000000000000081526004016107f890611c98565b60405180910390fd5b6000600381111561081557610814611413565b5b8160050160009054906101000a900460ff16600381111561083957610838611413565b5b14610879576040517f08c379a000000000000000000000000000000000000000000000000000000000815260040161087090611d04565b60405180910390fd5b60018160050160006101000a81548160ff021916908360038111156108a1576108a0611413565b5b02179055503373ffffffffffffffffffffffffffffffffffffffff16827f90c43b6a9d409fc995839bcf3ff51412c70a7153f9feca3750aa9e9dad82a68b60405160405180910390a35050565b606060016000838152602001908152602001600020805480602002602001604051908101604052809291908181526020016000905b82821015610a6257838290600052602060002090600402016040518060e0016040529081600082015481526020016001820160009054906101000a900460ff16600381111561097557610974611413565b5b600381111561098757610986611413565b5b81526020016001820160019054906101000a900473ffffffffffffffffffffffffffffffffffffffff1673ffffffffffffffffffffffffffffffffffffffff1673ffffffffffffffffffffffffffffffffffffffff1681526020016001820160159054906101000a900467ffffffffffffffff1667ffffffffffffffff1667ffffffffffffffff168152602001600282015481526020016003820160009054906101000a900460ff161515151581526020016003820160019054906101000a900460ff16151515158152505081526020019060010190610923565b505050509050919050565b600080600083815260200190815260200160002090508060050160019054906101000a900460ff16610ad4576040517f08c379a0000000000000000000000000000000000000000000000000000000008152600401610acb90611c2c565b60405180910390fd5b3373ffffffffffffffffffffffffffffffffffffffff168160020160089054906101000a900473ffffffffffffffffffffffffffffffffffffffff1673ffffffffffffffffffffffffffffffffffffffff1614610b66576040517f08c379a0000000000000000000000000000000000000000000000000000000008152600401610b5d90611c98565b60405180910390fd5b60016003811115610b7a57610b79611413565b5b8160050160009054906101000a900460ff166003811115610b9e57610b9d611413565b5b14610bde576040517f08c379a0000000000000000000000000000000000000000000000000000000008152600401610bd590611d04565b60405180910390fd5b60028160050160006101000a81548160ff02191690836003811115610c0657610c05611413565b5b02179055503373ffffffffffffffffffffffffffffffffffffffff16827fa3e36e7e8dcfe9ed63d3ee7b00cf3c2d9b33a8f68ed1e8aa9e232323f72e969d60405160405180910390a35050565b600080600083815260200190815260200160002090508060050160019054906101000a900460ff16610cba576040517f08c379a0000000000000000000000000000000000000000000000000000000008152600401610cb190611c2c565b60405180910390fd5b3373ffffffffffffffffffffffffffffffffffffffff168160030160009054906101000a900473ffffffffffffffffffffffffffffffffffffffff1673ffffffffffffffffffffffffffffffffffffffff1614610d4c576040517f08c379a0000000000000000000000000000000000000000000000000000000008152600401610d4390611d70565b60405180910390fd5b60026003811115610d6057610d5f611413565b5b8160050160009054906101000a900460ff166003811115610d8457610d83611413565b5b14610dc4576040517f08c379a0000000000000000000000000000000000000000000000000000000008152600401610dbb90611d04565b60405180910390fd5b60038160050160006101000a81548160ff02191690836003811115610dec57610deb611413565b5b02179055503373ffffffffffffffffffffffffffffffffffffffff16827f76e82bdae99d72c078da4a593e564973be7b3aa01da5367872cf87174fada86860405160405180910390a35050565b6000801b8503610e7e576040517f08c379a0000000000000000000000000000000000000000000000000000000008152600401610e7590611ddc565b60405180910390fd5b818015610e885750805b610ec7576040517f08c379a0000000000000000000000000000000000000000000000000000000008152600401610ebe90611e48565b60405180910390fd5b600160008681526020019081526020016000206040518060e00160405280878152602001866003811115610efe57610efd611413565b5b81526020013373ffffffffffffffffffffffffffffffffffffffff1681526020014267ffffffffffffffff168152602001858152602001841515815260200183151581525090806001815401808255809150506001900390600052602060002090600402016000909190919091506000820151816000015560208201518160010160006101000a81548160ff02191690836003811115610fa157610fa0611413565b5b021790555060408201518160010160016101000a81548173ffffffffffffffffffffffffffffffffffffffff021916908373ffffffffffffffffffffffffffffffffffffffff16021790555060608201518160010160156101000a81548167ffffffffffffffff021916908367ffffffffffffffff1602179055506080820151816002015560a08201518160030160006101000a81548160ff02191690831515021790555060c08201518160030160016101000a81548160ff02191690831515021790555050503373ffffffffffffffffffffffffffffffffffffffff1684600381111561109257611091611413565b5b867f9b6d0a6ac5cb4ea2cadeb9bff4ac56b2f15ee15bff26cf375aedf5661ba3c9f8866040516110c29190611e68565b60405180910390a45050505050565b60006020528060005260406000206000915090508060000154908060010154908060020160009054906101000a900463ffffffff16908060020160049054906101000a900463ffffffff16908060020160089054906101000a900473ffffffffffffffffffffffffffffffffffffffff16908060030160009054906101000a900473ffffffffffffffffffffffffffffffffffffffff16908060040154908060050160009054906101000a900460ff16908060050160019054906101000a900460ff16905089565b600073ffffffffffffffffffffffffffffffffffffffff82169050919050565b6000819050919050565b60006111de6111d96111d484611199565b6111b9565b611199565b9050919050565b60006111f0826111c3565b9050919050565b6000611202826111e5565b9050919050565b611212816111f7565b82525050565b600060208201905061122d6000830184611209565b92915050565b600080fd5b6000819050919050565b61124b81611238565b811461125657600080fd5b50565b60008135905061126881611242565b92915050565b600063ffffffff82169050919050565b6112878161126e565b811461129257600080fd5b50565b6000813590506112a48161127e565b92915050565b60006112b582611199565b9050919050565b6112c5816112aa565b81146112d057600080fd5b50565b6000813590506112e2816112bc565b92915050565b6000819050919050565b6112fb816112e8565b811461130657600080fd5b50565b600081359050611318816112f2565b92915050565b60008060008060008060c0878903121561133b5761133a611233565b5b600061134989828a01611259565b965050602061135a89828a01611259565b955050604061136b89828a01611295565b945050606061137c89828a01611295565b935050608061138d89828a016112d3565b92505060a061139e89828a01611309565b9150509295509295509295565b6000602082840312156113c1576113c0611233565b5b60006113cf84828501611259565b91505092915050565b600081519050919050565b600082825260208201905092915050565b6000819050602082019050919050565b61140d81611238565b82525050565b7f4e487b7100000000000000000000000000000000000000000000000000000000600052602160045260246000fd5b6004811061145357611452611413565b5b50565b600081905061146482611442565b919050565b600061147482611456565b9050919050565b61148481611469565b82525050565b611493816112aa565b82525050565b600067ffffffffffffffff82169050919050565b6114b681611499565b82525050565b60008115159050919050565b6114d1816114bc565b82525050565b60e0820160008201516114ed6000850182611404565b506020820151611500602085018261147b565b506040820151611513604085018261148a565b50606082015161152660608501826114ad565b5060808201516115396080850182611404565b5060a082015161154c60a08501826114c8565b5060c082015161155f60c08501826114c8565b50505050565b600061157183836114d7565b60e08301905092915050565b6000602082019050919050565b6000611595826113d8565b61159f81856113e3565b93506115aa836113f4565b8060005b838110156115db5781516115c28882611565565b97506115cd8361157d565b9250506001810190506115ae565b5085935050505092915050565b60006020820190508181036000830152611602818461158a565b905092915050565b6004811061161757600080fd5b50565b6000813590506116298161160a565b92915050565b611638816114bc565b811461164357600080fd5b50565b6000813590506116558161162f565b92915050565b600080600080600060a0868803121561167757611676611233565b5b600061168588828901611259565b95505060206116968882890161161a565b94505060406116a788828901611259565b93505060606116b888828901611646565b92505060806116c988828901611646565b9150509295509295909350565b6116df81611238565b82525050565b6116ee8161126e565b82525050565b6116fd816112aa565b82525050565b61170c816112e8565b82525050565b6004811061172357611722611413565b5b50565b600081905061173482611712565b919050565b600061174482611726565b9050919050565b61175481611739565b82525050565b611763816114bc565b82525050565b60006101208201905061177f600083018c6116d6565b61178c602083018b6116d6565b611799604083018a6116e5565b6117a660608301896116e5565b6117b360808301886116f4565b6117c060a08301876116f4565b6117cd60c0830186611703565b6117da60e083018561174b565b6117e861010083018461175a565b9a9950505050505050505050565b600082825260208201905092915050565b7f496e76616c696420736869706d656e7400000000000000000000000000000000600082015250565b600061183d6010836117f6565b915061184882611807565b602082019050919050565b6000602082019050818103600083015261186c81611830565b9050919050565b7f536869706d656e74206578697374730000000000000000000000000000000000600082015250565b60006118a9600f836117f6565b91506118b482611873565b602082019050919050565b600060208201905081810360008301526118d88161189c565b9050919050565b7f496e76616c69642073656e646572000000000000000000000000000000000000600082015250565b6000611915600e836117f6565b9150611920826118df565b602082019050919050565b6000602082019050818103600083015261194481611908565b9050919050565b7f496e76616c69642072616e676500000000000000000000000000000000000000600082015250565b6000611981600d836117f6565b915061198c8261194b565b602082019050919050565b600060208201905081810360008301526119b081611974565b9050919050565b7f4e487b7100000000000000000000000000000000000000000000000000000000600052601160045260246000fd5b60006119f18261126e565b91506119fc8361126e565b9250828203905063ffffffff811115611a1857611a176119b7565b5b92915050565b6000611a298261126e565b9150611a348361126e565b9250828201905063ffffffff811115611a5057611a4f6119b7565b5b92915050565b7f52616e6765206d69736d61746368000000000000000000000000000000000000600082015250565b6000611a8c600e836117f6565b9150611a9782611a56565b602082019050919050565b60006020820190508181036000830152611abb81611a7f565b9050919050565b6000602082019050611ad760008301846116f4565b92915050565b60058110611aea57600080fd5b50565b600081519050611afc81611add565b92915050565b600060208284031215611b1857611b17611233565b5b6000611b2684828501611aed565b91505092915050565b7f526563656976657220726f6c6520696e76616c69640000000000000000000000600082015250565b6000611b656015836117f6565b9150611b7082611b2f565b602082019050919050565b60006020820190508181036000830152611b9481611b58565b9050919050565b6000608082019050611bb060008301876116f4565b611bbd60208301866116e5565b611bca60408301856116e5565b611bd76060830184611703565b95945050505050565b7f556e6b6e6f776e20736869706d656e7400000000000000000000000000000000600082015250565b6000611c166010836117f6565b9150611c2182611be0565b602082019050919050565b60006020820190508181036000830152611c4581611c09565b9050919050565b7f4e6f742073656e64657200000000000000000000000000000000000000000000600082015250565b6000611c82600a836117f6565b9150611c8d82611c4c565b602082019050919050565b60006020820190508181036000830152611cb181611c75565b9050919050565b7f496e76616c696420737461747573000000000000000000000000000000000000600082015250565b6000611cee600e836117f6565b9150611cf982611cb8565b602082019050919050565b60006020820190508181036000830152611d1d81611ce1565b9050919050565b7f4e6f742072656365697665720000000000000000000000000000000000000000600082015250565b6000611d5a600c836117f6565b9150611d6582611d24565b602082019050919050565b60006020820190508181036000830152611d8981611d4d565b9050919050565b7f496e76616c696420756e69740000000000000000000000000000000000000000600082015250565b6000611dc6600c836117f6565b9150611dd182611d90565b602082019050919050565b60006020820190508181036000830152611df581611db9565b9050919050565b7f4475616c20636f6e6669726d6174696f6e207265717569726564000000000000600082015250565b6000611e32601a836117f6565b9150611e3d82611dfc565b602082019050919050565b60006020820190508181036000830152611e6181611e25565b9050919050565b6000602082019050611e7d60008301846116d6565b9291505056fea2646970667358221220cdb278e94dbe23b6d54a866dbc2c2ad1fcef99c4070a5dc93ba00584d379475c64736f6c63430008180033",
  "linkReferences": {},
  "deployedLinkReferences": {}
}