{
  "_format": "hh-sol-artifact-1",
  "contractName": "RoleManager",
  "sourceName": "contracts/RoleManager.sol",
  "abi": [
    {
      "inputs": [
        {
          "internalType": "address",
          "name": "initialAdmin",
          "type": "address"
        }
      ],
      "stateMutability": "nonpayable",
      "type": "constructor"
    },
    {
      "anonymous": false,
      "inputs": [
        {
          "indexed": true,
          "internalType": "address",
          "name": "account",
          "type": "address"
        },
        {
          "indexed": true,
          "internalType": "enum RoleManager.Role",
          "name": "role",
          "type": "uint8"
        },
        {
          "indexed": true,
          "internalType": "address",
          "name": "assignedBy",
          "type": "address"
        }
      ],
      "name": "RoleAssigned",
      "type": "event"
    },
    {
      "inputs": [
        {
          "internalType": "address",
          "name": "account",
          "type": "address"
        },
        {
          "internalType": "enum RoleManager.Role",
          "name": "role",
          "type": "uint8"
        }
      ],
      "name": "assignRole",
      "outputs": [],
      "stateMutability": "nonpayable",
      "type": "function"
    },
    {
      "inputs": [
        {
          "internalType": "address",
          "name": "account",
          "type": "address"
        }
      ],
      "name": "getRole",
      "outputs": [
        {
          "internalType": "enum RoleManager.Role",
          "name": "",
          "type": "uint8"
        }
      ],
      "stateMutability": "view",
      "type": "function"
    },
    {
      "inputs": [
        {
          "internalType": "address",
          "name": "account",
          "type": "address"
        },
        {
          "internalType": "enum RoleManager.Role",
          "name": "role",
          "type": "uint8"
        }
      ],
      "name": "hasRole",
      "outputs": [
        {
          "internalType": "bool",
          "name": "",
          "type": "bool"
        }
      ],
      "stateMutability": "view",
      "type": "function"
    },
    {
      "inputs": [
        {
          "internalType": "address",
          "name": "account",
          "type": "address"
        }
      ],
      "name": "revokeRole",
      "outputs": [],
      "stateMutability": "nonpayable",
      "type": "function"
    }
  ],
  "bytecode": "0x60806040523480156200001157600080fd5b5060405162000c4038038062000c408339818101604052810190620000379190620001f4565b600073ffffffffffffffffffffffffffffffffffffffff168173ffffffffffffffffffffffffffffffffffffffff1603620000a9576040517f08c379a0000000000000000000000000000000000000000000000000000000008152600401620000a09062000287565b60405180910390fd5b60046000808373ffffffffffffffffffffffffffffffffffffffff1673ffffffffffffffffffffffffffffffffffffffff16815260200190815260200160002060006101000a81548160ff021916908360048111156200010e576200010d620002a9565b5b02179055503373ffffffffffffffffffffffffffffffffffffffff1660048081111562000140576200013f620002a9565b5b8273ffffffffffffffffffffffffffffffffffffffff167f2459ac88ac07c4020108de12f1f8675bbf7e6928b4cfc156bde4727aacf7897360405160405180910390a450620002d8565b600080fd5b600073ffffffffffffffffffffffffffffffffffffffff82169050919050565b6000620001bc826200018f565b9050919050565b620001ce81620001af565b8114620001da57600080fd5b50565b600081519050620001ee81620001c3565b92915050565b6000602082840312156200020d576200020c6200018a565b5b60006200021d84828501620001dd565b91505092915050565b600082825260208201905092915050565b7f496e76616c69642061646d696e00000000000000000000000000000000000000600082015250565b60006200026f600d8362000226565b91506200027c8262000237565b602082019050919050565b60006020820190508181036000830152620002a28162000260565b9050919050565b7f4e487b7100000000000000000000000000000000000000000000000000000000600052602160045260246000fd5b61095880620002e86000396000f3fe608060405234801561001057600080fd5b506004361061004c5760003560e01c80634427673314610051578063630a195b1461008157806380e52e3f1461009d57806395a8c58d146100b9575b600080fd5b61006b60048036038101906100669190610673565b6100e9565b6040516100789190610717565b60405180910390f35b61009b60048036038101906100969190610757565b61013e565b005b6100b760048036038101906100b29190610673565b61039c565b005b6100d360048036038101906100ce9190610757565b610594565b6040516100e091906107b2565b60405180910390f35b60008060008373ffffffffffffffffffffffffffffffffffffffff1673ffffffffffffffffffffffffffffffffffffffff16815260200190815260200160002060009054906101000a900460ff169050919050565b600480811115610151576101506106a0565b5b6000803373ffffffffffffffffffffffffffffffffffffffff1673ffffffffffffffffffffffffffffffffffffffff16815260200190815260200160002060009054906101000a900460ff1660048111156101af576101ae6106a0565b5b146101ef576040517f08c379a00000000000000000000000000000000000000000000000000000000081526004016101e69061082a565b60405180910390fd5b600073ffffffffffffffffffffffffffffffffffffffff168273ffffffffffffffffffffffffffffffffffffffff160361025e576040517f08c379a000000000000000000000000000000000000000000000000000000000815260040161025590610896565b60405180910390fd5b60006004811115610272576102716106a0565b5b816004811115610285576102846106a0565b5b036102c5576040517f08c379a00000000000000000000000000000000000000000000000000000000081526004016102bc90610902565b60405180910390fd5b806000808473ffffffffffffffffffffffffffffffffffffffff1673ffffffffffffffffffffffffffffffffffffffff16815260200190815260200160002060006101000a81548160ff02191690836004811115610326576103256106a0565b5b02179055503373ffffffffffffffffffffffffffffffffffffffff16816004811115610355576103546106a0565b5b8373ffffffffffffffffffffffffffffffffffffffff167f2459ac88ac07c4020108de12f1f8675bbf7e6928b4cfc156bde4727aacf7897360405160405180910390a45050565b6004808111156103af576103ae6106a0565b5b6000803373ffffffffffffffffffffffffffffffffffffffff1673ffffffffffffffffffffffffffffffffffffffff16815260200190815260200160002060009054906101000a900460ff16600481111561040d5761040c6106a0565b5b1461044d576040517f08c379a00000000000000000000000000000000000000000000000000000000081526004016104449061082a565b60405180910390fd5b600073ffffffffffffffffffffffffffffffffffffffff168173ffffffffffffffffffffffffffffffffffffffff16036104bc576040517f08c379a00000000000000000000000000000000000000000000000000000000081526004016104b390610896565b60405180910390fd5b60008060008373ffffffffffffffffffffffffffffffffffffffff1673ffffffffffffffffffffffffffffffffffffffff16815260200190815260200160002060006101000a81548160ff0219169083600481111561051e5761051d6106a0565b5b02179055503373ffffffffffffffffffffffffffffffffffffffff166000600481111561054e5761054d6106a0565b5b8273ffffffffffffffffffffffffffffffffffffffff167f2459ac88ac07c4020108de12f1f8675bbf7e6928b4cfc156bde4727aacf7897360405160405180910390a450565b60008160048111156105a9576105a86106a0565b5b6000808573ffffffffffffffffffffffffffffffffffffffff1673ffffffffffffffffffffffffffffffffffffffff16815260200190815260200160002060009054906101000a900460ff166004811115610607576106066106a0565b5b14905092915050565b600080fd5b600073ffffffffffffffffffffffffffffffffffffffff82169050919050565b600061064082610615565b9050919050565b61065081610635565b811461065b57600080fd5b50565b60008135905061066d81610647565b92915050565b60006020828403121561068957610688610610565b5b60006106978482850161065e565b91505092915050565b7f4e487b7100000000000000000000000000000000000000000000000000000000600052602160045260246000fd5b600581106106e0576106df6106a0565b5b50565b60008190506106f1826106cf565b919050565b6000610701826106e3565b9050919050565b610711816106f6565b82525050565b600060208201905061072c6000830184610708565b92915050565b6005811061073f57600080fd5b50565b60008135905061075181610732565b92915050565b6000806040838503121561076e5761076d610610565b5b600061077c8582860161065e565b925050602061078d85828601610742565b9150509250929050565b60008115159050919050565b6107ac81610797565b82525050565b60006020820190506107c760008301846107a3565b92915050565b600082825260208201905092915050565b7f4f6e6c792061646d696e00000000000000000000000000000000000000000000600082015250565b6000610814600a836107cd565b915061081f826107de565b602082019050919050565b6000602082019050818103600083015261084381610807565b9050919050565b7f496e76616c6964206163636f756e740000000000000000000000000000000000600082015250565b6000610880600f836107cd565b915061088b8261084a565b602082019050919050565b600060208201905081810360008301526108af81610873565b9050919050565b7f496e76616c696420726f6c650000000000000000000000000000000000000000600082015250565b60006108ec600c836107cd565b91506108f7826108b6565b602082019050919050565b6000602082019050818103600083015261091b816108df565b905091905056fea2646970667358221220ce7d691bb40b48cedef3e7807c94d806fd05bd6fa2caeb260349d8c994ca933c64736f6c63430008180033",
  "linkReferences": {},
  "deployedLinkReferences": {}
}