{
  "_format": "hh-sol-artifact-1",
  "contractName": "BatchRegistry",
  "sourceName": "contracts/BatchRegistry.sol",
  "abi": [
    {
      "inputs": [
        {
          "internalType": "address",
          "name": "roleManagerAddress",
          "type": "address"
        }
      ],
      "stateMutability": "nonpayable",
      "type": "constructor"
    },
    {
      "anonymous": false,
      "inputs": [
        {
          "indexed": true,
          "internalType": "bytes32",
          "name": "batchId",
          "type": "bytes32"
        },
        {
          "indexed": true,
          "internalType": "address",
          "name": "manufacturer",
          "type": "address"
        },
        {
          "indexed": false,
          "internalType": "string",
          "name": "medicineName",
          "type": "string"
        },
        {
          "indexed": false,
          "internalType": "uint256",
          "name": "totalQuantity",
          "type": "uint256"
        }
      ],
      "name": "BatchRegistered",
      "type": "event"
    },
    {
      "anonymous": false,
      "inputs": [
        {
          "indexed": true,
          "internalType": "bytes32",
          "name": "batchId",
          "type": "bytes32"
        },
        {
          "indexed": true,
          "internalType": "enum BatchRegistry.BatchStatus",
          "name": "status",
          "type": "uint8"
        }
      ],
      "name": "BatchStatusUpdated",
      "type": "event"
    },
    {
      "anonymous": false,
      "inputs": [
        {
          "indexed": true,
          "internalType": "bytes32",
          "name": "unitId",
          "type": "bytes32"
        },
        {
          "indexed": true,
          "internalType": "bytes32",
          "name": "batchId",
          "type": "bytes32"
        },
        {
          "indexed": false,
          "internalType": "uint32",
          "name": "serialNumber",
          "type": "uint32"
        }
      ],
      "name": "UnitSerialized",
      "type": "event"
    },
    {
      "inputs": [
        {
          "internalType": "bytes32",
          "name": "",
          "type": "bytes32"
        }
      ],
      "name": "batches",
      "outputs": [
        {
          "internalType": "bytes32",
          "name": "batchId",
          "type": "bytes32"
        },
        {
          "internalType": "string",
          "name": "medicineName",
          "type": "string"
        },
        {
          "internalType": "address",
          "name": "manufacturer",
          "type": "address"
        },
        {
          "internalType": "uint64",
          "name": "manufactureDate",
          "type": "uint64"
        },
        {
          "internalType": "uint64",
          "name": "expiryDate",
          "type": "uint64"
        },
        {
          "internalType": "uint256",
          "name": "totalQuantity",
          "type": "uint256"
        },
        {
          "internalType": "enum BatchRegistry.BatchStatus",
          "name": "status",
          "type": "uint8"
        },
        {
          "internalType": "bool",
          "name": "exists",
          "type": "bool"
        }
      ],
      "stateMutability": "view",
      "type": "function"
    },
    {
      "inputs": [
        {
          "internalType": "bytes32",
          "name": "unitId",
          "type": "bytes32"
        }
      ],
      "name": "getBatchByUnit",
      "outputs": [
        {
          "internalType": "bytes32",
          "name": "",
          "type": "bytes32"
        }
      ],
      "stateMutability": "view",
      "type": "function"
    },
    {
      "inputs": [
        {
          "internalType": "bytes32",
          "name": "batchId",
          "type": "bytes32"
        },
        {
          "internalType": "string",
          "name": "medicineName",
          "type": "string"
        },
        {
          "internalType": "uint64",
          "name": "manufactureDate",
          "type": "uint64"
        },
        {
          "internalType": "uint64",
          "name": "expiryDate",
          "type": "uint64"
        },
        {
          "internalType": "uint256",
          "name": "totalQuantity",
          "type": "uint256"
        }
      ],
      "name": "registerBatch",
      "outputs": [],
      "stateMutability": "nonpayable",
      "type": "function"
    },
    {
      "inputs": [],
      "name": "roleManager",
      "outputs": [
        {
          "internalType": "contract RoleManager",
          "name": "",
          "type": "address"
        }
      ],
      "stateMutability": "view",
      "type": "function"
    },
    {
      "inputs": [
        {
          "internalType": "bytes32",
          "name": "batchId",
          "type": "bytes32"
        },
        {
          "internalType": "bytes32",
          "name": "unitId",
          "type": "bytes32"
        },
        {
          "internalType": "uint32",
          "name": "serialNumber",
          "type": "uint32"
        }
      ],
      "name": "serializeUnit",
      "outputs": [],
      "stateMutability": "nonpayable",
      "type": "function"
    },
    {
      "inputs": [
        {
          "internalType": "bytes32",
          "name": "batchId",
          "type": "bytes32"
        },
        {
          "internalType": "enum BatchRegistry.BatchStatus",
          "name": "status",
          "type": "uint8"
        }
      ],
      "name": "setBatchStatus",
      "outputs": [],
      "stateMutability": "nonpayable",
      "type": "function"
    },
    {
      "inputs": [
        {
          "internalType": "bytes32",
          "name": "",
          "type": "bytes32"
        }
      ],
      "name": "unitToBatch",
      "outputs": [
        {
          "internalType": "bytes32",
          "name": "",
          "type": "bytes32"
        }
      ],
      "stateMutability": "view",
      "type": "function"
    }
  ],
  "bytecode": "0x60a06040523480156200001157600080fd5b5060405162001d9d38038062001d9d83398181016040528101906200003791906200014e565b600073ffffffffffffffffffffffffffffffffffffffff168173ffffffffffffffffffffffffffffffffffffffff1603620000a9576040517f08c379a0000000000000000000000000000000000000000000000000000000008152600401620000a090620001e1565b60405180910390fd5b8073ffffffffffffffffffffffffffffffffffffffff1660808173ffffffffffffffffffffffffffffffffffffffff16815250505062000203565b600080fd5b600073ffffffffffffffffffffffffffffffffffffffff82169050919050565b60006200011682620000e9565b9050919050565b620001288162000109565b81146200013457600080fd5b50565b60008151905062000148816200011d565b92915050565b600060208284031215620001675762000166620000e4565b5b6000620001778482850162000137565b91505092915050565b600082825260208201905092915050565b7f496e76616c696420726f6c65206d616e61676572000000000000000000000000600082015250565b6000620001c960148362000180565b9150620001d68262000191565b602082019050919050565b60006020820190508181036000830152620001fc81620001ba565b9050919050565b608051611b69620002346000396000818161018c01528181610283015281816103f501526108490152611b696000f3fe608060405234801561001057600080fd5b506004361061007c5760003560e01c80638d53ad6d1161005b5780638d53ad6d146100d7578063b3f1cdd414610107578063c81e25ab14610137578063e88122e71461016e5761007c565b8062435da5146100815780631ff3423d1461009f5780637837557f146100bb575b600080fd5b61008961018a565b6040516100969190610d86565b60405180910390f35b6100b960048036038101906100b49190610e06565b6101ae565b005b6100d560048036038101906100d09190610e82565b6103df565b005b6100f160048036038101906100ec9190610ed5565b6106cc565b6040516100fe9190610f11565b60405180910390f35b610121600480360381019061011c9190610ed5565b6106e9565b60405161012e9190610f11565b60405180910390f35b610151600480360381019061014c9190610ed5565b610701565b6040516101659897969594939291906110ab565b60405180910390f35b610188600480360381019061018391906111ed565b610833565b005b7f000000000000000000000000000000000000000000000000000000000000000081565b600080600084815260200190815260200160002090508060050160019054906101000a900460ff16610215576040517f08c379a000000000000000000000000000000000000000000000000000000000815260040161020c906112d3565b60405180910390fd5b8060020160009054906101000a900473ffffffffffffffffffffffffffffffffffffffff1673ffffffffffffffffffffffffffffffffffffffff163373ffffffffffffffffffffffffffffffffffffffff16148061032f575060048081111561028157610280611019565b5b7f000000000000000000000000000000000000000000000000000000000000000073ffffffffffffffffffffffffffffffffffffffff166344276733336040518263ffffffff1660e01b81526004016102da91906112f3565b602060405180830381865afa1580156102f7573d6000803e3d6000fd5b505050506040513d601f19601f8201168201806040525081019061031b9190611333565b600481111561032d5761032c611019565b5b145b61036e576040517f08c379a0000000000000000000000000000000000000000000000000000000008152600401610365906113ac565b60405180910390fd5b818160050160006101000a81548160ff0219169083600381111561039557610394611019565b5b02179055508160038111156103ad576103ac611019565b5b837f0797470913aa0ef7f55b8090b90dec9a0907ea2195a030a523d4bbab863cba4160405160405180910390a3505050565b600160048111156103f3576103f2611019565b5b7f000000000000000000000000000000000000000000000000000000000000000073ffffffffffffffffffffffffffffffffffffffff166344276733336040518263ffffffff1660e01b815260040161044c91906112f3565b602060405180830381865afa158015610469573d6000803e3d6000fd5b505050506040513d601f19601f8201168201806040525081019061048d9190611333565b600481111561049f5761049e611019565b5b146104df576040517f08c379a00000000000000000000000000000000000000000000000000000000081526004016104d690611418565b60405180910390fd5b600080600085815260200190815260200160002090508060050160019054906101000a900460ff16610546576040517f08c379a000000000000000000000000000000000000000000000000000000000815260040161053d906112d3565b60405180910390fd5b3373ffffffffffffffffffffffffffffffffffffffff168160020160009054906101000a900473ffffffffffffffffffffffffffffffffffffffff1673ffffffffffffffffffffffffffffffffffffffff16146105d8576040517f08c379a00000000000000000000000000000000000000000000000000000000081526004016105cf90611484565b60405180910390fd5b6000801b830361061d576040517f08c379a0000000000000000000000000000000000000000000000000000000008152600401610614906114f0565b60405180910390fd5b6000801b600160008581526020019081526020016000205414610675576040517f08c379a000000000000000000000000000000000000000000000000000000000815260040161066c9061155c565b60405180910390fd5b83600160008581526020019081526020016000208190555083837fed11ccf5992f6ff9eb9a472ccd4255894607a86fc6db011e022b55371c6adb84846040516106be919061158b565b60405180910390a350505050565b600060016000838152602001908152602001600020549050919050565b60016020528060005260406000206000915090505481565b600060205280600052604060002060009150905080600001549080600101805461072a906115d5565b80601f0160208091040260200160405190810160405280929190818152602001828054610756906115d5565b80156107a35780601f10610778576101008083540402835291602001916107a3565b820191906000526020600020905b81548152906001019060200180831161078657829003601f168201915b5050505050908060020160009054906101000a900473ffffffffffffffffffffffffffffffffffffffff16908060020160149054906101000a900467ffffffffffffffff16908060030160009054906101000a900467ffffffffffffffff16908060040154908060050160009054906101000a900460ff16908060050160019054906101000a900460ff16905088565b6001600481111561084757610846611019565b5b7f000000000000000000000000000000000000000000000000000000000000000073ffffffffffffffffffffffffffffffffffffffff166344276733336040518263ffffffff1660e01b81526004016108a091906112f3565b602060405180830381865afa1580156108bd573d6000803e3d6000fd5b505050506040513d601f19601f820116820180604052508101906108e19190611333565b60048111156108f3576108f2611019565b5b14610933576040517f08c379a000000000000000000000000000000000000000000000000000000000815260040161092a90611418565b60405180910390fd5b6000801b8603610978576040517f08c379a000000000000000000000000000000000000000000000000000000000815260040161096f90611652565b60405180910390fd5b60008087815260200190815260200160002060050160019054906101000a900460ff16156109db576040517f08c379a00000000000000000000000000000000000000000000000000000000081526004016109d2906116be565b60405180910390fd5b60008585905011610a21576040517f08c379a0000000000000000000000000000000000000000000000000000000008152600401610a189061172a565b60405180910390fd5b8267ffffffffffffffff168267ffffffffffffffff1611610a77576040517f08c379a0000000000000000000000000000000000000000000000000000000008152600401610a6e90611796565b60405180910390fd5b60008111610aba576040517f08c379a0000000000000000000000000000000000000000000000000000000008152600401610ab190611802565b60405180910390fd5b60405180610100016040528087815260200186868080601f016020809104026020016040519081016040528093929190818152602001838380828437600081840152601f19601f8201169050808301925050505050505081526020013373ffffffffffffffffffffffffffffffffffffffff1681526020018467ffffffffffffffff1681526020018367ffffffffffffffff16815260200182815260200160006003811115610b6c57610b6b611019565b5b815260200160011515815250600080888152602001908152602001600020600082015181600001556020820151816001019081610ba991906119f3565b5060408201518160020160006101000a81548173ffffffffffffffffffffffffffffffffffffffff021916908373ffffffffffffffffffffffffffffffffffffffff16021790555060608201518160020160146101000a81548167ffffffffffffffff021916908367ffffffffffffffff16021790555060808201518160030160006101000a81548167ffffffffffffffff021916908367ffffffffffffffff16021790555060a0820151816004015560c08201518160050160006101000a81548160ff02191690836003811115610c8457610c83611019565b5b021790555060e08201518160050160016101000a81548160ff0219169083151502179055509050503373ffffffffffffffffffffffffffffffffffffffff16867f7eb7167673729da9738104808c0efd980565725bd77c53732196438cedeadeed878785604051610cf793929190611b01565b60405180910390a3505050505050565b600073ffffffffffffffffffffffffffffffffffffffff82169050919050565b6000819050919050565b6000610d4c610d47610d4284610d07565b610d27565b610d07565b9050919050565b6000610d5e82610d31565b9050919050565b6000610d7082610d53565b9050919050565b610d8081610d65565b82525050565b6000602082019050610d9b6000830184610d77565b92915050565b600080fd5b600080fd5b6000819050919050565b610dbe81610dab565b8114610dc957600080fd5b50565b600081359050610ddb81610db5565b92915050565b60048110610dee57600080fd5b50565b600081359050610e0081610de1565b92915050565b60008060408385031215610e1d57610e1c610da1565b5b6000610e2b85828601610dcc565b9250506020610e3c85828601610df1565b9150509250929050565b600063ffffffff82169050919050565b610e5f81610e46565b8114610e6a57600080fd5b50565b600081359050610e7c81610e56565b92915050565b600080600060608486031215610e9b57610e9a610da1565b5b6000610ea986828701610dcc565b9350506020610eba86828701610dcc565b9250506040610ecb86828701610e6d565b9150509250925092565b600060208284031215610eeb57610eea610da1565b5b6000610ef984828501610dcc565b91505092915050565b610f0b81610dab565b82525050565b6000602082019050610f266000830184610f02565b92915050565b600081519050919050565b600082825260208201905092915050565b60005b83811015610f66578082015181840152602081019050610f4b565b60008484015250505050565b6000601f19601f8301169050919050565b6000610f8e82610f2c565b610f988185610f37565b9350610fa8818560208601610f48565b610fb181610f72565b840191505092915050565b6000610fc782610d07565b9050919050565b610fd781610fbc565b82525050565b600067ffffffffffffffff82169050919050565b610ffa81610fdd565b82525050565b6000819050919050565b61101381611000565b82525050565b7f4e487b7100000000000000000000000000000000000000000000000000000000600052602160045260246000fd5b6004811061105957611058611019565b5b50565b600081905061106a82611048565b919050565b600061107a8261105c565b9050919050565b61108a8161106f565b82525050565b60008115159050919050565b6110a581611090565b82525050565b6000610100820190506110c1600083018b610f02565b81810360208301526110d3818a610f83565b90506110e26040830189610fce565b6110ef6060830188610ff1565b6110fc6080830187610ff1565b61110960a083018661100a565b61111660c0830185611081565b61112360e083018461109c565b9998505050505050505050565b600080fd5b600080fd5b600080fd5b60008083601f84011261115557611154611130565b5b8235905067ffffffffffffffff81111561117257611171611135565b5b60208301915083600182028301111561118e5761118d61113a565b5b9250929050565b61119e81610fdd565b81146111a957600080fd5b50565b6000813590506111bb81611195565b92915050565b6111ca81611000565b81146111d557600080fd5b50565b6000813590506111e7816111c1565b92915050565b60008060008060008060a0878903121561120a57611209610da1565b5b600061121889828a01610dcc565b965050602087013567ffffffffffffffff81111561123957611238610da6565b5b61124589828a0161113f565b9550955050604061125889828a016111ac565b935050606061126989828a016111ac565b925050608061127a89828a016111d8565b9150509295509295509295565b7f556e6b6e6f776e20626174636800000000000000000000000000000000000000600082015250565b60006112bd600d83610f37565b91506112c882611287565b602082019050919050565b600060208201905081810360008301526112ec816112b0565b9050919050565b60006020820190506113086000830184610fce565b92915050565b6005811061131b57600080fd5b50565b60008151905061132d8161130e565b92915050565b60006020828403121561134957611348610da1565b5b60006113578482850161131e565b91505092915050565b7f4e6f7420617574686f72697a6564000000000000000000000000000000000000600082015250565b6000611396600e83610f37565b91506113a182611360565b602082019050919050565b600060208201905081810360008301526113c581611389565b9050919050565b7f4f6e6c79206d616e756661637475726572000000000000000000000000000000600082015250565b6000611402601183610f37565b915061140d826113cc565b602082019050919050565b60006020820190508181036000830152611431816113f5565b9050919050565b7f57726f6e67206d616e7566616374757265720000000000000000000000000000600082015250565b600061146e601283610f37565b915061147982611438565b602082019050919050565b6000602082019050818103600083015261149d81611461565b9050919050565b7f496e76616c696420756e69740000000000000000000000000000000000000000600082015250565b60006114da600c83610f37565b91506114e5826114a4565b602082019050919050565b60006020820190508181036000830152611509816114cd565b9050919050565b7f556e697420657869737473000000000000000000000000000000000000000000600082015250565b6000611546600b83610f37565b915061155182611510565b602082019050919050565b6000602082019050818103600083015261157581611539565b9050919050565b61158581610e46565b82525050565b60006020820190506115a0600083018461157c565b92915050565b7f4e487b7100000000000000000000000000000000000000000000000000000000600052602260045260246000fd5b600060028204905060018216806115ed57607f821691505b602082108103611600576115ff6115a6565b5b50919050565b7f496e76616c696420626174636800000000000000000000000000000000000000600082015250565b600061163c600d83610f37565b915061164782611606565b602082019050919050565b6000602082019050818103600083015261166b8161162f565b9050919050565b7f4261746368206578697374730000000000000000000000000000000000000000600082015250565b60006116a8600c83610f37565b91506116b382611672565b602082019050919050565b600060208201905081810360008301526116d78161169b565b9050919050565b7f4e616d6520726571756972656400000000000000000000000000000000000000600082015250565b6000611714600d83610f37565b915061171f826116de565b602082019050919050565b6000602082019050818103600083015261174381611707565b9050919050565b7f496e76616c696420646174657300000000000000000000000000000000000000600082015250565b6000611780600d83610f37565b915061178b8261174a565b602082019050919050565b600060208201905081810360008301526117af81611773565b9050919050565b7f496e76616c6964207175616e7469747900000000000000000000000000000000600082015250565b60006117ec601083610f37565b91506117f7826117b6565b602082019050919050565b6000602082019050818103600083015261181b816117df565b9050919050565b7f4e487b7100000000000000000000000000000000000000000000000000000000600052604160045260246000fd5b60008190508160005260206000209050919050565b60006020601f8301049050919050565b600082821b905092915050565b6000600883026118b37fffffffffffffffffffffffffffffffffffffffffffffffffffffffffffffffff82611876565b6118bd8683611876565b95508019841693508086168417925050509392505050565b60006118f06118eb6118e684611000565b610d27565b611000565b9050919050565b6000819050919050565b61190a836118d5565b61191e611916826118f7565b848454611883565b825550505050565b600090565b611933611926565b61193e818484611901565b505050565b5b818110156119625761195760008261192b565b600181019050611944565b5050565b601f8211156119a75761197881611851565b61198184611866565b81016020851015611990578190505b6119a461199c85611866565b830182611943565b50505b505050565b600082821c905092915050565b60006119ca600019846008026119ac565b1980831691505092915050565b60006119e383836119b9565b9150826002028217905092915050565b6119fc82610f2c565b67ffffffffffffffff811115611a1557611a14611822565b5b611a1f82546115d5565b611a2a828285611966565b600060209050601f831160018114611a5d5760008415611a4b578287015190505b611a5585826119d7565b865550611abd565b601f198416611a6b86611851565b60005b82811015611a9357848901518255600182019150602085019450602081019050611a6e565b86831015611ab05784890151611aac601f8916826119b9565b8355505b6001600288020188555050505b505050505050565b82818337600083830152505050565b6000611ae08385610f37565b9350611aed838584611ac5565b611af683610f72565b840190509392505050565b60006040820190508181036000830152611b1c818587611ad4565b9050611b2b602083018461100a565b94935050505056fea2646970667358221220038a7a865b5995ba9c421ecb30d30e4f2e257017df8fbbc3076de15db3f603a664736f6c63430008180033",
  "linkReferences": {},
  "deployedLinkReferences": {}
}